:100000000C9435000C945D000C945D000C945D0024
:100010000C945D000C945D000C945D000C945D00EC
:100020000C945D000C945D000C945D000C945D00DC
:100030000C945D000C945D000C945D000C945D00CC
:100040000C9488010C945D000C94F8010C94D2017E
:100050000C945D000C945D000C945D000C945D00AC
:100060000C945D000C945D00A80311241FBECFEF1B
:10007000D8E0DEBFCDBF11E0A0E0B1E0E8E4FAE0F7
:1000800002C005900D92A831B107D9F721E0A8E18F
:10009000B1E001C01D92A23CB207E1F710E0C5E358
:1000A000D0E004C02197FE010E94F703C433D107BA
:1000B000C9F70E942A020C9422050C940000AF920A
:1000C000BF92CF92DF92EF92FF920F931F93CF9345
:1000D000DF936C017B018B01040F151FEB015E01A7
:1000E000AE18BF08C017D10759F06991D601ED913C
:1000F000FC910190F081E02DC6010995892B79F7DB
:10010000C501DF91CF911F910F91FF90EF90DF908C
:10011000CF90BF90AF900895FC01538D448D252F53
:1001200030E0842F90E0821B930B541710F0CF9691
:10013000089501970895FC01918D828D981761F0C3
:10014000A28DAE0FBF2FB11D5D968C91928D9F5FDA
:100150009F73928F90E008958FEF9FEF0895FC01B9
:10016000918D828D981731F0828DE80FF11D858D6C
:1001700090E008958FEF9FEF0895FC01918D228DFF
:10018000892F90E0805C9F4F821B91098F73992784
:10019000089588E191E00E94BD0021E0892B09F4D7
:1001A00020E0822F089580E090E0892B29F00E94C2
:1001B000C90081110C9400000895FC01A48DA80FC2
:1001C000B92FB11DA35ABF4F2C91848D90E0019699
:1001D0008F739927848FA689B7892C93A089B189B9
:1001E0008C91837080648C93938D848D981306C05A
:1001F0000288F389E02D80818F7D80830895EF92BE
:10020000FF920F931F93CF93DF93EC0181E0888FD0
:100210009B8D8C8D98131AC0E889F989808185FFA0
:1002200015C09FB7F894EE89FF896083E889F98942
:1002300080818370806480839FBF81E090E0DF9144
:10024000CF911F910F91FF90EF900895F62E0B8D97
:1002500010E00F5F1F4F0F731127E02E8C8D8E1152
:100260000CC00FB607FCFACFE889F989808185FFB9
:10027000F5CFCE010E94DD00F1CFEB8DEC0FFD2F0D
:10028000F11DE35AFF4FF0829FB7F8940B8FEA8974
:10029000FB8980818062CFCFCF93DF93EC01888D83
:1002A0008823B9F0AA89BB89E889F9898C9185FDF1
:1002B00003C0808186FD0DC00FB607FCF7CF8C917F
:1002C00085FFF2CF808185FFEDCFCE010E94DD005A
:1002D000E9CFDF91CF9108950F931F93CF93DF93D1
:1002E000EC018C01060F171FC017D10761F088E1E0
:1002F00091E00E94BD00892BB9F388E191E00E9452
:100300009B008993F1CFDF91CF911F910F910895B9
:100310001F920F920FB60F9211242F933F938F933A
:100320009F93AF93BF938091BA019091BB01A0912D
:10033000BC01B091BD013091B90123E0230F2D37ED
:1003400058F50196A11DB11D2093B9018093BA0102
:100350009093BB01A093BC01B093BD018091B50106
:100360009091B601A091B701B091B8010196A11D7D
:10037000B11D8093B5019093B601A093B701B093DE
:10038000B801BF91AF919F918F913F912F910F90A5
:100390000FBE0F901F90189526E8230F0296A11DFF
:1003A000B11DD2CF1F920F920FB60F9211242F932F
:1003B0003F934F935F936F937F938F939F93AF93ED
:1003C000BF93EF93FF9388E191E00E94DD00FF91DE
:1003D000EF91BF91AF919F918F917F916F915F91BD
:1003E0004F913F912F910F900FBE0F901F90189536
:1003F0001F920F920FB60F9211242F938F939F93FA
:10040000EF93FF93E0912801F09129018081E09121
:100410002E01F0912F0182FD1BC09081809131014E
:100420008F5F8F7320913201821741F0E09131018B
:10043000F0E0E85EFE4F958F80933101FF91EF91E0
:100440009F918F912F910F900FBE0F901F90189535
:100450008081F4CFCF93DF93CDB7DEB7A5970FB6EA
:10046000F894DEBF0FBECDBF789484B5826084BDA2
:1004700084B5816084BD85B5826085BD85B58160A8
:1004800085BD80916E00816080936E001092810026
:1004900080918100826080938100809181008160E1
:1004A00080938100809180008160809380008091A2
:1004B000B10084608093B1008091B000816080932E
:1004C000B00080917A00846080937A0080917A00F5
:1004D000826080937A0080917A00816080937A00B4
:1004E00080917A00806880937A001092C100E09138
:1004F0002801F091290182E08083E0912401F091AC
:1005000025011082E0912601F09127018FEC808374
:1005100010923001E0912C01F0912D0186E0808352
:10052000E0912A01F0912B01808180618083E0912C
:100530002A01F0912B01808188608083E0912A015B
:10054000F0912B01808180688083E0912A01F091F5
:100550002B0180818F7D80833AE0432E512C612CCA
:10056000712C88E191E00E94BD00892B09F4BAC08A
:1005700088E191E00E949B008C01019611F481E0DA
:1005800090E00E94FD03FC01E00FF11F1082B80112
:100590000E946C0188E191E00E94BD00892BD1F39B
:1005A00088E191E00E949B007C018FEF9FEFE114B6
:1005B00020E2F20648F4C701880F991F880F991F9F
:1005C000009711F481E090E00E94FD035C011C01A2
:1005D0006C01470181E0881A910808F43DC088E168
:1005E00091E00E94BD00892BD1F388E191E00E9447
:1005F0009B008C01019611F481E090E00E94FD03C4
:10060000D6018D939C930AA31BA3FC01E00FF11F5D
:100610001082B8010E946C0188E191E00E94BD0047
:10062000892BD1F388E191E00E949B009DA38CA3CC
:10063000012B19F4B1E0BAA31BA28AA19BA10E94CD
:10064000FD03F601938382836CA17DA10E946C015E
:10065000F4E0CF0ED11CBECF90E080E08E159F0558
:100660008CF4D101ED91FC91AC014E1B5F0BDA01D2
:10067000AE0FBF1F2C913191231365C02111F7CF0D
:10068000F10101C0F50180819181A281B381FD0159
:10069000C080D1800D2C000CEE08FF08F7FE2FC0A3
:1006A0006DE288E191E00E94FF0022273327A90133
:1006B0002C193D094E095F0919A28E010F5D1F4FCC
:1006C000CA01B901A30192010E94D503605DD8015E
:1006D0006E938D01211531054105510589F7FD0105
:1006E000AB2B21F580E090E0892B09F43ACF0E94F2
:1006F000C900882309F435CF0E94000032CFA7013A
:10070000960119A28E010F5D1F4FCA01B901A30105
:1007100092010E94D503605DF80162938F0121155B
:1007200031054105510589F73097E1F2019000202C
:10073000E9F73197AF01401B510BB80188E191E017
:100740000E945F00CFCF0196F4E02F0E311C86CFC0
:10075000E8E1F1E01382128288EE93E0A0E0B0E0DD
:1007600084839583A683B7838AE091E09183808315
:1007700085EC90E09587848784EC90E09787868766
:1007800080EC90E0918B808B81EC90E0938B828B5E
:1007900082EC90E0958B848B86EC90E0978B868B37
:1007A000118E128E138E148E0895A1E21A2EAA1B9A
:1007B000BB1BFD010DC0AA1FBB1FEE1FFF1FA21711
:1007C000B307E407F50720F0A21BB30BE40BF50B0E
:1007D000661F771F881F991F1A9469F76095709597
:1007E000809590959B01AC01BD01CF010895EE0F5E
:1007F000FF1F0590F491E02D09940F931F93CF9361
:10080000DF938230910510F482E090E0E091C00126
:10081000F091C10130E020E0B0E0A0E0309799F421
:100820002115310509F44AC0281B390B2430310544
:10083000D8F58A819B816115710589F1FB0193834C
:100840008283FE0111C040815181028113814817CA
:100850005907E0F04817590799F4109761F012967C
:100860000C93129713961C933296CF01DF91CF9180
:100870001F910F9108950093C0011093C101F4CF0F
:100880002115310551F04217530738F0A901DB015A
:100890009A01BD01DF01F801C1CFEF01F9CF9093BB
:1008A000C1018093C001CDCFFE01E20FF31F819300
:1008B00091932250310939832883D7CF2091BE01EB
:1008C0003091BF01232B41F42091020130910301AB
:1008D0003093BF012093BE012091000130910101AE
:1008E0002115310541F42DB73EB7409104015091D7
:1008F0000501241B350BE091BE01F091BF01E21709
:10090000F307A0F42E1B3F0B2817390778F0AC0132
:100910004E5F5F4F2417350748F04E0F5F1F50930F
:10092000BF014093BE01819391939FCFF0E0E0E03F
:100930009CCFCF93DF930097E9F0FC0132971382AD
:100940001282A091C001B091C101ED0130E020E020
:100950001097A1F420813181820F931F2091BE0155
:100960003091BF012817390709F061C0F093BF012A
:10097000E093BE01DF91CF910895EA01CE17DF0722
:10098000E8F54A815B819E0141155105B1F7E90106
:10099000FB83EA8349915991C40FD51FEC17FD07DA
:1009A00061F4808191810296840F951FE9019983FA
:1009B0008883828193819B838A83F0E0E0E01296B2
:1009C0008D919C9113970097B9F52D913C911197BA
:1009D000CD010296820F931F2091BE013091BF017D
:1009E0002817390739F6309751F51092C101109246
:1009F000C001B093BF01A093BE01BCCFD383C2831B
:100A000040815181840F951FC817D90761F44E5F4B
:100A10005F4F88819981480F591F518340838A8194
:100A20009B81938382832115310509F0B0CFF09328
:100A3000C101E093C0019ECFFD01DC01C0CF138254
:080A40001282D7CFF894FFCF1A
:100A48000000C201800000000000FF005F008C0071
:080A58004C01BD009B00AF0042
:00000001FF
